{
  "_format": "hh-sol-artifact-1",
  "contractName": "LionNFT",
  "sourceName": "contracts/LionNFT.sol",
  "abi": [
    {
      "inputs": [
        {
          "internalType": "address",
          "name": "whitelistContract",
          "type": "address"
        }
      ],
      "stateMutability": "nonpayable",
      "type": "constructor"
    },
    {
      "anonymous": false,
      "inputs": [
        {
          "indexed": true,
          "internalType": "address",
          "name": "owner",
          "type": "address"
        },
        {
          "indexed": true,
          "internalType": "address",
          "name": "approved",
          "type": "address"
        },
        {
          "indexed": true,
          "internalType": "uint256",
          "name": "tokenId",
          "type": "uint256"
        }
      ],
      "name": "Approval",
      "type": "event"
    },
    {
      "anonymous": false,
      "inputs": [
        {
          "indexed": true,
          "internalType": "address",
          "name": "owner",
          "type": "address"
        },
        {
          "indexed": true,
          "internalType": "address",
          "name": "operator",
          "type": "address"
        },
        {
          "indexed": false,
          "internalType": "bool",
          "name": "approved",
          "type": "bool"
        }
      ],
      "name": "ApprovalForAll",
      "type": "event"
    },
    {
      "anonymous": false,
      "inputs": [
        {
          "indexed": true,
          "internalType": "address",
          "name": "previousOwner",
          "type": "address"
        },
        {
          "indexed": true,
          "internalType": "address",
          "name": "newOwner",
          "type": "address"
        }
      ],
      "name": "OwnershipTransferred",
      "type": "event"
    },
    {
      "anonymous": false,
      "inputs": [
        {
          "indexed": true,
          "internalType": "address",
          "name": "from",
          "type": "address"
        },
        {
          "indexed": true,
          "internalType": "address",
          "name": "to",
          "type": "address"
        },
        {
          "indexed": true,
          "internalType": "uint256",
          "name": "tokenId",
          "type": "uint256"
        }
      ],
      "name": "Transfer",
      "type": "event"
    },
    {
      "stateMutability": "payable",
      "type": "fallback"
    },
    {
      "inputs": [],
      "name": "_paused",
      "outputs": [
        {
          "internalType": "bool",
          "name": "",
          "type": "bool"
        }
      ],
      "stateMutability": "view",
      "type": "function"
    },
    {
      "inputs": [],
      "name": "_price",
      "outputs": [
        {
          "internalType": "uint256",
          "name": "",
          "type": "uint256"
        }
      ],
      "stateMutability": "view",
      "type": "function"
    },
    {
      "inputs": [
        {
          "internalType": "address",
          "name": "to",
          "type": "address"
        },
        {
          "internalType": "uint256",
          "name": "tokenId",
          "type": "uint256"
        }
      ],
      "name": "approve",
      "outputs": [],
      "stateMutability": "nonpayable",
      "type": "function"
    },
    {
      "inputs": [
        {
          "internalType": "address",
          "name": "owner",
          "type": "address"
        }
      ],
      "name": "balanceOf",
      "outputs": [
        {
          "internalType": "uint256",
          "name": "",
          "type": "uint256"
        }
      ],
      "stateMutability": "view",
      "type": "function"
    },
    {
      "inputs": [
        {
          "internalType": "uint256",
          "name": "tokenId",
          "type": "uint256"
        }
      ],
      "name": "getApproved",
      "outputs": [
        {
          "internalType": "address",
          "name": "",
          "type": "address"
        }
      ],
      "stateMutability": "view",
      "type": "function"
    },
    {
      "inputs": [
        {
          "internalType": "address",
          "name": "owner",
          "type": "address"
        },
        {
          "internalType": "address",
          "name": "operator",
          "type": "address"
        }
      ],
      "name": "isApprovedForAll",
      "outputs": [
        {
          "internalType": "bool",
          "name": "",
          "type": "bool"
        }
      ],
      "stateMutability": "view",
      "type": "function"
    },
    {
      "inputs": [],
      "name": "maxTokenIds",
      "outputs": [
        {
          "internalType": "uint256",
          "name": "",
          "type": "uint256"
        }
      ],
      "stateMutability": "view",
      "type": "function"
    },
    {
      "inputs": [],
      "name": "mint",
      "outputs": [],
      "stateMutability": "payable",
      "type": "function"
    },
    {
      "inputs": [],
      "name": "name",
      "outputs": [
        {
          "internalType": "string",
          "name": "",
          "type": "string"
        }
      ],
      "stateMutability": "view",
      "type": "function"
    },
    {
      "inputs": [],
      "name": "owner",
      "outputs": [
        {
          "internalType": "address",
          "name": "",
          "type": "address"
        }
      ],
      "stateMutability": "view",
      "type": "function"
    },
    {
      "inputs": [
        {
          "internalType": "uint256",
          "name": "tokenId",
          "type": "uint256"
        }
      ],
      "name": "ownerOf",
      "outputs": [
        {
          "internalType": "address",
          "name": "",
          "type": "address"
        }
      ],
      "stateMutability": "view",
      "type": "function"
    },
    {
      "inputs": [],
      "name": "presaleEnded",
      "outputs": [
        {
          "internalType": "uint256",
          "name": "",
          "type": "uint256"
        }
      ],
      "stateMutability": "view",
      "type": "function"
    },
    {
      "inputs": [],
      "name": "presaleMint",
      "outputs": [],
      "stateMutability": "payable",
      "type": "function"
    },
    {
      "inputs": [],
      "name": "presaleStarted",
      "outputs": [
        {
          "internalType": "bool",
          "name": "",
          "type": "bool"
        }
      ],
      "stateMutability": "view",
      "type": "function"
    },
    {
      "inputs": [],
      "name": "renounceOwnership",
      "outputs": [],
      "stateMutability": "nonpayable",
      "type": "function"
    },
    {
      "inputs": [
        {
          "internalType": "address",
          "name": "from",
          "type": "address"
        },
        {
          "internalType": "address",
          "name": "to",
          "type": "address"
        },
        {
          "internalType": "uint256",
          "name": "tokenId",
          "type": "uint256"
        }
      ],
      "name": "safeTransferFrom",
      "outputs": [],
      "stateMutability": "nonpayable",
      "type": "function"
    },
    {
      "inputs": [
        {
          "internalType": "address",
          "name": "from",
          "type": "address"
        },
        {
          "internalType": "address",
          "name": "to",
          "type": "address"
        },
        {
          "internalType": "uint256",
          "name": "tokenId",
          "type": "uint256"
        },
        {
          "internalType": "bytes",
          "name": "data",
          "type": "bytes"
        }
      ],
      "name": "safeTransferFrom",
      "outputs": [],
      "stateMutability": "nonpayable",
      "type": "function"
    },
    {
      "inputs": [
        {
          "internalType": "address",
          "name": "operator",
          "type": "address"
        },
        {
          "internalType": "bool",
          "name": "approved",
          "type": "bool"
        }
      ],
      "name": "setApprovalForAll",
      "outputs": [],
      "stateMutability": "nonpayable",
      "type": "function"
    },
    {
      "inputs": [
        {
          "internalType": "bool",
          "name": "val",
          "type": "bool"
        }
      ],
      "name": "setPaused",
      "outputs": [],
      "stateMutability": "nonpayable",
      "type": "function"
    },
    {
      "inputs": [],
      "name": "startPresale",
      "outputs": [],
      "stateMutability": "nonpayable",
      "type": "function"
    },
    {
      "inputs": [
        {
          "internalType": "bytes4",
          "name": "interfaceId",
          "type": "bytes4"
        }
      ],
      "name": "supportsInterface",
      "outputs": [
        {
          "internalType": "bool",
          "name": "",
          "type": "bool"
        }
      ],
      "stateMutability": "view",
      "type": "function"
    },
    {
      "inputs": [],
      "name": "symbol",
      "outputs": [
        {
          "internalType": "string",
          "name": "",
          "type": "string"
        }
      ],
      "stateMutability": "view",
      "type": "function"
    },
    {
      "inputs": [
        {
          "internalType": "uint256",
          "name": "index",
          "type": "uint256"
        }
      ],
      "name": "tokenByIndex",
      "outputs": [
        {
          "internalType": "uint256",
          "name": "",
          "type": "uint256"
        }
      ],
      "stateMutability": "view",
      "type": "function"
    },
    {
      "inputs": [],
      "name": "tokenIds",
      "outputs": [
        {
          "internalType": "uint256",
          "name": "",
          "type": "uint256"
        }
      ],
      "stateMutability": "view",
      "type": "function"
    },
    {
      "inputs": [
        {
          "internalType": "address",
          "name": "owner",
          "type": "address"
        },
        {
          "internalType": "uint256",
          "name": "index",
          "type": "uint256"
        }
      ],
      "name": "tokenOfOwnerByIndex",
      "outputs": [
        {
          "internalType": "uint256",
          "name": "",
          "type": "uint256"
        }
      ],
      "stateMutability": "view",
      "type": "function"
    },
    {
      "inputs": [
        {
          "internalType": "uint256",
          "name": "tokenId",
          "type": "uint256"
        }
      ],
      "name": "tokenURI",
      "outputs": [
        {
          "internalType": "string",
          "name": "",
          "type": "string"
        }
      ],
      "stateMutability": "view",
      "type": "function"
    },
    {
      "inputs": [],
      "name": "totalSupply",
      "outputs": [
        {
          "internalType": "uint256",
          "name": "",
          "type": "uint256"
        }
      ],
      "stateMutability": "view",
      "type": "function"
    },
    {
      "inputs": [
        {
          "internalType": "address",
          "name": "from",
          "type": "address"
        },
        {
          "internalType": "address",
          "name": "to",
          "type": "address"
        },
        {
          "internalType": "uint256",
          "name": "tokenId",
          "type": "uint256"
        }
      ],
      "name": "transferFrom",
      "outputs": [],
      "stateMutability": "nonpayable",
      "type": "function"
    },
    {
      "inputs": [
        {
          "internalType": "address",
          "name": "newOwner",
          "type": "address"
        }
      ],
      "name": "transferOwnership",
      "outputs": [],
      "stateMutability": "nonpayable",
      "type": "function"
    },
    {
      "inputs": [],
      "name": "withdraw",
      "outputs": [],
      "stateMutability": "nonpayable",
      "type": "function"
    },
    {
      "stateMutability": "payable",
      "type": "receive"
    }
  ],
  "bytecode": "0x6080604052662386f26fc10000600b55601e600d553480156200002157600080fd5b50604051620041e5380380620041e5833981810160405281019062000047919062000279565b6040518060400160405280600581526020017f4c696f6e730000000000000000000000000000000000000000000000000000008152506040518060400160405280600281526020017f4c4e0000000000000000000000000000000000000000000000000000000000008152508160009081620000c4919062000525565b508060019081620000d6919062000525565b505050620000f9620000ed6200014160201b60201c565b6200014960201b60201c565b80600f60006101000a81548173ffffffffffffffffffffffffffffffffffffffff021916908373ffffffffffffffffffffffffffffffffffffffff160217905550506200060c565b600033905090565b6000600a60009054906101000a900473ffffffffffffffffffffffffffffffffffffffff16905081600a60006101000a81548173ffffffffffffffffffffffffffffffffffffffff021916908373ffffffffffffffffffffffffffffffffffffffff1602179055508173ffffffffffffffffffffffffffffffffffffffff168173ffffffffffffffffffffffffffffffffffffffff167f8be0079c531659141344cd1fd0a4f28419497f9722a3daafe3b4186f6b6457e060405160405180910390a35050565b600080fd5b600073ffffffffffffffffffffffffffffffffffffffff82169050919050565b6000620002418262000214565b9050919050565b620002538162000234565b81146200025f57600080fd5b50565b600081519050620002738162000248565b92915050565b6000602082840312156200029257620002916200020f565b5b6000620002a28482850162000262565b91505092915050565b600081519050919050565b7f4e487b7100000000000000000000000000000000000000000000000000000000600052604160045260246000fd5b7f4e487b7100000000000000000000000000000000000000000000000000000000600052602260045260246000fd5b600060028204905060018216806200032d57607f821691505b602082108103620003435762000342620002e5565b5b50919050565b60008190508160005260206000209050919050565b60006020601f8301049050919050565b600082821b905092915050565b600060088302620003ad7fffffffffffffffffffffffffffffffffffffffffffffffffffffffffffffffff826200036e565b620003b986836200036e565b95508019841693508086168417925050509392505050565b6000819050919050565b6000819050919050565b60006200040662000400620003fa84620003d1565b620003db565b620003d1565b9050919050565b6000819050919050565b6200042283620003e5565b6200043a62000431826200040d565b8484546200037b565b825550505050565b600090565b6200045162000442565b6200045e81848462000417565b505050565b5b8181101562000486576200047a60008262000447565b60018101905062000464565b5050565b601f821115620004d5576200049f8162000349565b620004aa846200035e565b81016020851015620004ba578190505b620004d2620004c9856200035e565b83018262000463565b50505b505050565b600082821c905092915050565b6000620004fa60001984600802620004da565b1980831691505092915050565b6000620005158383620004e7565b9150826002028217905092915050565b6200053082620002ab565b67ffffffffffffffff8111156200054c576200054b620002b6565b5b62000558825462000314565b620005658282856200048a565b600060209050601f8311600181146200059d576000841562000588578287015190505b62000594858262000507565b86555062000604565b601f198416620005ad8662000349565b60005b82811015620005d757848901518255600182019150602085019450602081019050620005b0565b86831015620005f75784890151620005f3601f891682620004e7565b8355505b6001600288020188555050505b505050505050565b613bc9806200061c6000396000f3fe6080604052600436106101d15760003560e01c80634f6ccce7116100f75780638da5cb5b11610095578063c87b56dd11610064578063c87b56dd1461061a578063e580b2b014610657578063e985e9c514610682578063f2fde38b146106bf576101d8565b80638da5cb5b1461057257806395d89b411461059d578063a22cb465146105c8578063b88d4fde146105f1576101d8565b80636352211e116100d15780636352211e146104b657806370a08231146104f3578063714cff5614610530578063715018a61461055b576101d8565b80634f6ccce71461044457806359533d6c146104815780635f7696211461048b576101d8565b806316c38b3c1161016f57806323b872dd1161013e57806323b872dd1461039e5780632f745c59146103c75780633ccfd60b1461040457806342842e0e1461041b576101d8565b806316c38b3c146102f457806316c61ccc1461031d57806318160ddd14610348578063235b6ea114610373576101d8565b806306fdde03116101ab57806306fdde0314610259578063081812fc14610284578063095ea7b3146102c15780631249c58b146102ea576101d8565b806301ffc9a7146101da57806304549d6f1461021757806304c98b2b14610242576101d8565b366101d857005b005b3480156101e657600080fd5b5061020160048036038101906101fc91906126ef565b6106e8565b60405161020e9190612737565b60405180910390f35b34801561022357600080fd5b5061022c610762565b6040516102399190612737565b60405180910390f35b34801561024e57600080fd5b50610257610775565b005b34801561026557600080fd5b5061026e6107ae565b60405161027b91906127e2565b60405180910390f35b34801561029057600080fd5b506102ab60048036038101906102a6919061283a565b610840565b6040516102b891906128a8565b60405180910390f35b3480156102cd57600080fd5b506102e860048036038101906102e391906128ef565b610886565b005b6102f261099d565b005b34801561030057600080fd5b5061031b6004803603810190610316919061295b565b610afd565b005b34801561032957600080fd5b50610332610b22565b60405161033f9190612737565b60405180910390f35b34801561035457600080fd5b5061035d610b35565b60405161036a9190612997565b60405180910390f35b34801561037f57600080fd5b50610388610b42565b6040516103959190612997565b60405180910390f35b3480156103aa57600080fd5b506103c560048036038101906103c091906129b2565b610b48565b005b3480156103d357600080fd5b506103ee60048036038101906103e991906128ef565b610ba8565b6040516103fb9190612997565b60405180910390f35b34801561041057600080fd5b50610419610c4d565b005b34801561042757600080fd5b50610442600480360381019061043d91906129b2565b610d17565b005b34801561045057600080fd5b5061046b6004803603810190610466919061283a565b610d37565b6040516104789190612997565b60405180910390f35b610489610da8565b005b34801561049757600080fd5b506104a0610fe2565b6040516104ad9190612997565b60405180910390f35b3480156104c257600080fd5b506104dd60048036038101906104d8919061283a565b610fe8565b6040516104ea91906128a8565b60405180910390f35b3480156104ff57600080fd5b5061051a60048036038101906105159190612a05565b611099565b6040516105279190612997565b60405180910390f35b34801561053c57600080fd5b50610545611150565b6040516105529190612997565b60405180910390f35b34801561056757600080fd5b50610570611156565b005b34801561057e57600080fd5b5061058761116a565b60405161059491906128a8565b60405180910390f35b3480156105a957600080fd5b506105b2611194565b6040516105bf91906127e2565b60405180910390f35b3480156105d457600080fd5b506105ef60048036038101906105ea9190612a32565b611226565b005b3480156105fd57600080fd5b5061061860048036038101906106139190612ba7565b61123c565b005b34801561062657600080fd5b50610641600480360381019061063c919061283a565b61129e565b60405161064e91906127e2565b60405180910390f35b34801561066357600080fd5b5061066c611306565b6040516106799190612997565b60405180910390f35b34801561068e57600080fd5b506106a960048036038101906106a49190612c2a565b61130c565b6040516106b69190612737565b60405180910390f35b3480156106cb57600080fd5b506106e660048036038101906106e19190612a05565b6113a0565b005b60007f780e9d63000000000000000000000000000000000000000000000000000000007bffffffffffffffffffffffffffffffffffffffffffffffffffffffff1916827bffffffffffffffffffffffffffffffffffffffffffffffffffffffff1916148061075b575061075a82611423565b5b9050919050565b600f60149054906101000a900460ff1681565b61077d611505565b6001600f60146101000a81548160ff02191690831515021790555061012c426107a69190612c99565b601081905550565b6060600080546107bd90612cfc565b80601f01602080910402602001604051908101604052809291908181526020018280546107e990612cfc565b80156108365780601f1061080b57610100808354040283529160200191610836565b820191906000526020600020905b81548152906001019060200180831161081957829003601f168201915b5050505050905090565b600061084b82611583565b6004600083815260200190815260200160002060009054906101000a900473ffffffffffffffffffffffffffffffffffffffff169050919050565b600061089182610fe8565b90508073ffffffffffffffffffffffffffffffffffffffff168373ffffffffffffffffffffffffffffffffffffffff1603610901576040517f08c379a00000000000000000000000000000000000000000000000000000000081526004016108f890612d9f565b60405180910390fd5b8073ffffffffffffffffffffffffffffffffffffffff166109206115ce565b73ffffffffffffffffffffffffffffffffffffffff16148061094f575061094e816109496115ce565b61130c565b5b61098e576040517f08c379a000000000000000000000000000000000000000000000000000000000815260040161098590612e31565b60405180910390fd5b61099883836115d6565b505050565b600c60009054906101000a900460ff16156109ed576040517f08c379a00000000000000000000000000000000000000000000000000000000081526004016109e490612e9d565b60405180910390fd5b600f60149054906101000a900460ff168015610a0b57506010544210155b610a4a576040517f08c379a0000000000000000000000000000000000000000000000000000000008152600401610a4190612f09565b60405180910390fd5b600d54600e5410610a90576040517f08c379a0000000000000000000000000000000000000000000000000000000008152600401610a8790612f75565b60405180910390fd5b600b54341015610ad5576040517f08c379a0000000000000000000000000000000000000000000000000000000008152600401610acc90612fe1565b60405180910390fd5b6001600e6000828254610ae89190612c99565b92505081905550610afb33600e5461168f565b565b610b05611505565b80600c60006101000a81548160ff02191690831515021790555050565b600c60009054906101000a900460ff1681565b6000600880549050905090565b600b5481565b610b59610b536115ce565b826116ad565b610b98576040517f08c379a0000000000000000000000000000000000000000000000000000000008152600401610b8f90613073565b60405180910390fd5b610ba3838383611742565b505050565b6000610bb383611099565b8210610bf4576040517f08c379a0000000000000000000000000000000000000000000000000000000008152600401610beb90613105565b60405180910390fd5b600660008473ffffffffffffffffffffffffffffffffffffffff1673ffffffffffffffffffffffffffffffffffffffff168152602001908152602001600020600083815260200190815260200160002054905092915050565b610c55611505565b6000610c5f61116a565b9050600047905060008273ffffffffffffffffffffffffffffffffffffffff1682604051610c8c90613156565b60006040518083038185875af1925050503d8060008114610cc9576040519150601f19603f3d011682016040523d82523d6000602084013e610cce565b606091505b5050905080610d12576040517f08c379a0000000000000000000000000000000000000000000000000000000008152600401610d09906131b7565b60405180910390fd5b505050565b610d328383836040518060200160405280600081525061123c565b505050565b6000610d41610b35565b8210610d82576040517f08c379a0000000000000000000000000000000000000000000000000000000008152600401610d7990613249565b60405180910390fd5b60088281548110610d9657610d95613269565b5b90600052602060002001549050919050565b600c60009054906101000a900460ff1615610df8576040517f08c379a0000000000000000000000000000000000000000000000000000000008152600401610def90612e9d565b60405180910390fd5b600f60149054906101000a900460ff168015610e15575060105442105b610e54576040517f08c379a0000000000000000000000000000000000000000000000000000000008152600401610e4b906132e4565b60405180910390fd5b600f60009054906101000a900473ffffffffffffffffffffffffffffffffffffffff1673ffffffffffffffffffffffffffffffffffffffff166306c933d8336040518263ffffffff1660e01b8152600401610eaf91906128a8565b602060405180830381865afa158015610ecc573d6000803e3d6000fd5b505050506040513d601f19601f82011682018060405250810190610ef09190613319565b610f2f576040517f08c379a0000000000000000000000000000000000000000000000000000000008152600401610f2690613392565b60405180910390fd5b600d54600e5410610f75576040517f08c379a0000000000000000000000000000000000000000000000000000000008152600401610f6c906133fe565b60405180910390fd5b600b54341015610fba576040517f08c379a0000000000000000000000000000000000000000000000000000000008152600401610fb190612fe1565b60405180910390fd5b6001600e6000828254610fcd9190612c99565b92505081905550610fe033600e5461168f565b565b600d5481565b6000806002600084815260200190815260200160002060009054906101000a900473ffffffffffffffffffffffffffffffffffffffff169050600073ffffffffffffffffffffffffffffffffffffffff168173ffffffffffffffffffffffffffffffffffffffff1603611090576040517f08c379a00000000000000000000000000000000000000000000000000000000081526004016110879061346a565b60405180910390fd5b80915050919050565b60008073ffffffffffffffffffffffffffffffffffffffff168273ffffffffffffffffffffffffffffffffffffffff1603611109576040517f08c379a0000000000000000000000000000000000000000000000000000000008152600401611100906134fc565b60405180910390fd5b600360008373ffffffffffffffffffffffffffffffffffffffff1673ffffffffffffffffffffffffffffffffffffffff168152602001908152602001600020549050919050565b600e5481565b61115e611505565b61116860006119a8565b565b6000600a60009054906101000a900473ffffffffffffffffffffffffffffffffffffffff16905090565b6060600180546111a390612cfc565b80601f01602080910402602001604051908101604052809291908181526020018280546111cf90612cfc565b801561121c5780601f106111f15761010080835404028352916020019161121c565b820191906000526020600020905b8154815290600101906020018083116111ff57829003601f168201915b5050505050905090565b6112386112316115ce565b8383611a6e565b5050565b61124d6112476115ce565b836116ad565b61128c576040517f08c379a000000000000000000000000000000000000000000000000000000000815260040161128390613073565b60405180910390fd5b61129884848484611bda565b50505050565b60606112a982611583565b60006112b3611c36565b905060008151116112d357604051806020016040528060008152506112fe565b806112dd84611c4d565b6040516020016112ee929190613558565b6040516020818303038152906040525b915050919050565b60105481565b6000600560008473ffffffffffffffffffffffffffffffffffffffff1673ffffffffffffffffffffffffffffffffffffffff16815260200190815260200160002060008373ffffffffffffffffffffffffffffffffffffffff1673ffffffffffffffffffffffffffffffffffffffff16815260200190815260200160002060009054906101000a900460ff16905092915050565b6113a8611505565b600073ffffffffffffffffffffffffffffffffffffffff168173ffffffffffffffffffffffffffffffffffffffff1603611417576040517f08c379a000000000000000000000000000000000000000000000000000000000815260040161140e906135ee565b60405180910390fd5b611420816119a8565b50565b60007f80ac58cd000000000000000000000000000000000000000000000000000000007bffffffffffffffffffffffffffffffffffffffffffffffffffffffff1916827bffffffffffffffffffffffffffffffffffffffffffffffffffffffff191614806114ee57507f5b5e139f000000000000000000000000000000000000000000000000000000007bffffffffffffffffffffffffffffffffffffffffffffffffffffffff1916827bffffffffffffffffffffffffffffffffffffffffffffffffffffffff1916145b806114fe57506114fd82611dad565b5b9050919050565b61150d6115ce565b73ffffffffffffffffffffffffffffffffffffffff1661152b61116a565b73ffffffffffffffffffffffffffffffffffffffff1614611581576040517f08c379a00000000000000000000000000000000000000000000000000000000081526004016115789061365a565b60405180910390fd5b565b61158c81611e17565b6115cb576040517f08c379a00000000000000000000000000000000000000000000000000000000081526004016115c29061346a565b60405180910390fd5b50565b600033905090565b816004600083815260200190815260200160002060006101000a81548173ffffffffffffffffffffffffffffffffffffffff021916908373ffffffffffffffffffffffffffffffffffffffff160217905550808273ffffffffffffffffffffffffffffffffffffffff1661164983610fe8565b73ffffffffffffffffffffffffffffffffffffffff167f8c5be1e5ebec7d5bd14f71427d1e84f3dd0314c0f7b2291e5b200ac8c7c3b92560405160405180910390a45050565b6116a9828260405180602001604052806000815250611e83565b5050565b6000806116b983610fe8565b90508073ffffffffffffffffffffffffffffffffffffffff168473ffffffffffffffffffffffffffffffffffffffff1614806116fb57506116fa818561130c565b5b8061173957508373ffffffffffffffffffffffffffffffffffffffff1661172184610840565b73ffffffffffffffffffffffffffffffffffffffff16145b91505092915050565b8273ffffffffffffffffffffffffffffffffffffffff1661176282610fe8565b73ffffffffffffffffffffffffffffffffffffffff16146117b8576040517f08c379a00000000000000000000000000000000000000000000000000000000081526004016117af906136ec565b60405180910390fd5b600073ffffffffffffffffffffffffffffffffffffffff168273ffffffffffffffffffffffffffffffffffffffff1603611827576040517f08c379a000000000000000000000000000000000000000000000000000000000815260040161181e9061377e565b60405180910390fd5b611832838383611ede565b61183d6000826115d6565b6001600360008573ffffffffffffffffffffffffffffffffffffffff1673ffffffffffffffffffffffffffffffffffffffff168152602001908152602001600020600082825461188d919061379e565b925050819055506001600360008473ffffffffffffffffffffffffffffffffffffffff1673ffffffffffffffffffffffffffffffffffffffff16815260200190815260200160002060008282546118e49190612c99565b92505081905550816002600083815260200190815260200160002060006101000a81548173ffffffffffffffffffffffffffffffffffffffff021916908373ffffffffffffffffffffffffffffffffffffffff160217905550808273ffffffffffffffffffffffffffffffffffffffff168473ffffffffffffffffffffffffffffffffffffffff167fddf252ad1be2c89b69c2b068fc378daa952ba7f163c4a11628f55a4df523b3ef60405160405180910390a46119a3838383611ff0565b505050565b6000600a60009054906101000a900473ffffffffffffffffffffffffffffffffffffffff16905081600a60006101000a81548173ffffffffffffffffffffffffffffffffffffffff021916908373ffffffffffffffffffffffffffffffffffffffff1602179055508173ffffffffffffffffffffffffffffffffffffffff168173ffffffffffffffffffffffffffffffffffffffff167f8be0079c531659141344cd1fd0a4f28419497f9722a3daafe3b4186f6b6457e060405160405180910390a35050565b8173ffffffffffffffffffffffffffffffffffffffff168373ffffffffffffffffffffffffffffffffffffffff1603611adc576040517f08c379a0000000000000000000000000000000000000000000000000000000008152600401611ad39061381e565b60405180910390fd5b80600560008573ffffffffffffffffffffffffffffffffffffffff1673ffffffffffffffffffffffffffffffffffffffff16815260200190815260200160002060008473ffffffffffffffffffffffffffffffffffffffff1673ffffffffffffffffffffffffffffffffffffffff16815260200190815260200160002060006101000a81548160ff0219169083151502179055508173ffffffffffffffffffffffffffffffffffffffff168373ffffffffffffffffffffffffffffffffffffffff167f17307eab39ab6107e8899845ad3d59bd9653f200f220920489ca2b5937696c3183604051611bcd9190612737565b60405180910390a3505050565b611be5848484611742565b611bf184848484611ff5565b611c30576040517f08c379a0000000000000000000000000000000000000000000000000000000008152600401611c27906138b0565b60405180910390fd5b50505050565b606060405180602001604052806000815250905090565b606060008203611c94576040518060400160405280600181526020017f30000000000000000000000000000000000000000000000000000000000000008152509050611da8565b600082905060005b60008214611cc6578080611caf906138d0565b915050600a82611cbf9190613947565b9150611c9c565b60008167ffffffffffffffff811115611ce257611ce1612a7c565b5b6040519080825280601f01601f191660200182016040528015611d145781602001600182028036833780820191505090505b5090505b60008514611da157600182611d2d919061379e565b9150600a85611d3c9190613978565b6030611d489190612c99565b60f81b818381518110611d5e57611d5d613269565b5b60200101907effffffffffffffffffffffffffffffffffffffffffffffffffffffffffffff1916908160001a905350600a85611d9a9190613947565b9450611d18565b8093505050505b919050565b60007f01ffc9a7000000000000000000000000000000000000000000000000000000007bffffffffffffffffffffffffffffffffffffffffffffffffffffffff1916827bffffffffffffffffffffffffffffffffffffffffffffffffffffffff1916149050919050565b60008073ffffffffffffffffffffffffffffffffffffffff166002600084815260200190815260200160002060009054906101000a900473ffffffffffffffffffffffffffffffffffffffff1673ffffffffffffffffffffffffffffffffffffffff1614159050919050565b611e8d838361217c565b611e9a6000848484611ff5565b611ed9576040517f08c379a0000000000000000000000000000000000000000000000000000000008152600401611ed0906138b0565b60405180910390fd5b505050565b611ee9838383612355565b600073ffffffffffffffffffffffffffffffffffffffff168373ffffffffffffffffffffffffffffffffffffffff1603611f2b57611f268161235a565b611f6a565b8173ffffffffffffffffffffffffffffffffffffffff168373ffffffffffffffffffffffffffffffffffffffff1614611f6957611f6883826123a3565b5b5b600073ffffffffffffffffffffffffffffffffffffffff168273ffffffffffffffffffffffffffffffffffffffff1603611fac57611fa781612510565b611feb565b8273ffffffffffffffffffffffffffffffffffffffff168273ffffffffffffffffffffffffffffffffffffffff1614611fea57611fe982826125e1565b5b5b505050565b505050565b60006120168473ffffffffffffffffffffffffffffffffffffffff16612660565b1561216f578373ffffffffffffffffffffffffffffffffffffffff1663150b7a0261203f6115ce565b8786866040518563ffffffff1660e01b815260040161206194939291906139fe565b6020604051808303816000875af192505050801561209d57506040513d601f19601f8201168201806040525081019061209a9190613a5f565b60015b61211f573d80600081146120cd576040519150601f19603f3d011682016040523d82523d6000602084013e6120d2565b606091505b506000815103612117576040517f08c379a000000000000000000000000000000000000000000000000000000000815260040161210e906138b0565b60405180910390fd5b805181602001fd5b63150b7a0260e01b7bffffffffffffffffffffffffffffffffffffffffffffffffffffffff1916817bffffffffffffffffffffffffffffffffffffffffffffffffffffffff191614915050612174565b600190505b949350505050565b600073ffffffffffffffffffffffffffffffffffffffff168273ffffffffffffffffffffffffffffffffffffffff16036121eb576040517f08c379a00000000000000000000000000000000000000000000000000000000081526004016121e290613ad8565b60405180910390fd5b6121f481611e17565b15612234576040517f08c379a000000000000000000000000000000000000000000000000000000000815260040161222b90613b44565b60405180910390fd5b61224060008383611ede565b6001600360008473ffffffffffffffffffffffffffffffffffffffff1673ffffffffffffffffffffffffffffffffffffffff16815260200190815260200160002060008282546122909190612c99565b92505081905550816002600083815260200190815260200160002060006101000a81548173ffffffffffffffffffffffffffffffffffffffff021916908373ffffffffffffffffffffffffffffffffffffffff160217905550808273ffffffffffffffffffffffffffffffffffffffff16600073ffffffffffffffffffffffffffffffffffffffff167fddf252ad1be2c89b69c2b068fc378daa952ba7f163c4a11628f55a4df523b3ef60405160405180910390a461235160008383611ff0565b5050565b505050565b6008805490506009600083815260200190815260200160002081905550600881908060018154018082558091505060019003906000526020600020016000909190919091505550565b600060016123b084611099565b6123ba919061379e565b905060006007600084815260200190815260200160002054905081811461249f576000600660008673ffffffffffffffffffffffffffffffffffffffff1673ffffffffffffffffffffffffffffffffffffffff168152602001908152602001600020600084815260200190815260200160002054905080600660008773ffffffffffffffffffffffffffffffffffffffff1673ffffffffffffffffffffffffffffffffffffffff168152602001908152602001600020600084815260200190815260200160002081905550816007600083815260200190815260200160002081905550505b6007600084815260200190815260200160002060009055600660008573ffffffffffffffffffffffffffffffffffffffff1673ffffffffffffffffffffffffffffffffffffffff16815260200190815260200160002060008381526020019081526020016000206000905550505050565b60006001600880549050612524919061379e565b905060006009600084815260200190815260200160002054905060006008838154811061255457612553613269565b5b90600052602060002001549050806008838154811061257657612575613269565b5b9060005260206000200181905550816009600083815260200190815260200160002081905550600960008581526020019081526020016000206000905560088054806125c5576125c4613b64565b5b6001900381819060005260206000200160009055905550505050565b60006125ec83611099565b905081600660008573ffffffffffffffffffffffffffffffffffffffff1673ffffffffffffffffffffffffffffffffffffffff168152602001908152602001600020600083815260200190815260200160002081905550806007600084815260200190815260200160002081905550505050565b6000808273ffffffffffffffffffffffffffffffffffffffff163b119050919050565b6000604051905090565b600080fd5b600080fd5b60007fffffffff0000000000000000000000000000000000000000000000000000000082169050919050565b6126cc81612697565b81146126d757600080fd5b50565b6000813590506126e9816126c3565b92915050565b6000602082840312156127055761270461268d565b5b6000612713848285016126da565b91505092915050565b60008115159050919050565b6127318161271c565b82525050565b600060208201905061274c6000830184612728565b92915050565b600081519050919050565b600082825260208201905092915050565b60005b8381101561278c578082015181840152602081019050612771565b60008484015250505050565b6000601f19601f8301169050919050565b60006127b482612752565b6127be818561275d565b93506127ce81856020860161276e565b6127d781612798565b840191505092915050565b600060208201905081810360008301526127fc81846127a9565b905092915050565b6000819050919050565b61281781612804565b811461282257600080fd5b50565b6000813590506128348161280e565b92915050565b6000602082840312156128505761284f61268d565b5b600061285e84828501612825565b91505092915050565b600073ffffffffffffffffffffffffffffffffffffffff82169050919050565b600061289282612867565b9050919050565b6128a281612887565b82525050565b60006020820190506128bd6000830184612899565b92915050565b6128cc81612887565b81146128d757600080fd5b50565b6000813590506128e9816128c3565b92915050565b600080604083850312156129065761290561268d565b5b6000612914858286016128da565b925050602061292585828601612825565b9150509250929050565b6129388161271c565b811461294357600080fd5b50565b6000813590506129558161292f565b92915050565b6000602082840312156129715761297061268d565b5b600061297f84828501612946565b91505092915050565b61299181612804565b82525050565b60006020820190506129ac6000830184612988565b92915050565b6000806000606084860312156129cb576129ca61268d565b5b60006129d9868287016128da565b93505060206129ea868287016128da565b92505060406129fb86828701612825565b9150509250925092565b600060208284031215612a1b57612a1a61268d565b5b6000612a29848285016128da565b91505092915050565b60008060408385031215612a4957612a4861268d565b5b6000612a57858286016128da565b9250506020612a6885828601612946565b9150509250929050565b600080fd5b600080fd5b7f4e487b7100000000000000000000000000000000000000000000000000000000600052604160045260246000fd5b612ab482612798565b810181811067ffffffffffffffff82111715612ad357612ad2612a7c565b5b80604052505050565b6000612ae6612683565b9050612af28282612aab565b919050565b600067ffffffffffffffff821115612b1257612b11612a7c565b5b612b1b82612798565b9050602081019050919050565b82818337600083830152505050565b6000612b4a612b4584612af7565b612adc565b905082815260208101848484011115612b6657612b65612a77565b5b612b71848285612b28565b509392505050565b600082601f830112612b8e57612b8d612a72565b5b8135612b9e848260208601612b37565b91505092915050565b60008060008060808587031215612bc157612bc061268d565b5b6000612bcf878288016128da565b9450506020612be0878288016128da565b9350506040612bf187828801612825565b925050606085013567ffffffffffffffff811115612c1257612c11612692565b5b612c1e87828801612b79565b91505092959194509250565b60008060408385031215612c4157612c4061268d565b5b6000612c4f858286016128da565b9250506020612c60858286016128da565b9150509250929050565b7f4e487b7100000000000000000000000000000000000000000000000000000000600052601160045260246000fd5b6000612ca482612804565b9150612caf83612804565b9250828201905080821115612cc757612cc6612c6a565b5b92915050565b7f4e487b7100000000000000000000000000000000000000000000000000000000600052602260045260246000fd5b60006002820490506001821680612d1457607f821691505b602082108103612d2757612d26612ccd565b5b50919050565b7f4552433732313a20617070726f76616c20746f2063757272656e74206f776e6560008201527f7200000000000000000000000000000000000000000000000000000000000000602082015250565b6000612d8960218361275d565b9150612d9482612d2d565b604082019050919050565b60006020820190508181036000830152612db881612d7c565b9050919050565b7f4552433732313a20617070726f76652063616c6c6572206973206e6f7420746f60008201527f6b656e206f776e6572206e6f7220617070726f76656420666f7220616c6c0000602082015250565b6000612e1b603e8361275d565b9150612e2682612dbf565b604082019050919050565b60006020820190508181036000830152612e4a81612e0e565b9050919050565b7f436f6e74726163742063757272656e746c792070617573656400000000000000600082015250565b6000612e8760198361275d565b9150612e9282612e51565b602082019050919050565b60006020820190508181036000830152612eb681612e7a565b9050919050565b7f50726573616c6520686173206e6f7420656e6465642079657400000000000000600082015250565b6000612ef360198361275d565b9150612efe82612ebd565b602082019050919050565b60006020820190508181036000830152612f2281612ee6565b9050919050565b7f457863656564206d6178696d756d206c696f6e7320746f20737570706c790000600082015250565b6000612f5f601e8361275d565b9150612f6a82612f29565b602082019050919050565b60006020820190508181036000830152612f8e81612f52565b9050919050565b7f45746865722073656e74206973206e6f7420636f727265637400000000000000600082015250565b6000612fcb60198361275d565b9150612fd682612f95565b602082019050919050565b60006020820190508181036000830152612ffa81612fbe565b9050919050565b7f4552433732313a2063616c6c6572206973206e6f7420746f6b656e206f776e6560008201527f72206e6f7220617070726f766564000000000000000000000000000000000000602082015250565b600061305d602e8361275d565b915061306882613001565b604082019050919050565b6000602082019050818103600083015261308c81613050565b9050919050565b7f455243373231456e756d657261626c653a206f776e657220696e646578206f7560008201527f74206f6620626f756e6473000000000000000000000000000000000000000000602082015250565b60006130ef602b8361275d565b91506130fa82613093565b604082019050919050565b6000602082019050818103600083015261311e816130e2565b9050919050565b600081905092915050565b50565b6000613140600083613125565b915061314b82613130565b600082019050919050565b600061316182613133565b9150819050919050565b7f4661696c656420746f2073656e64204574686572000000000000000000000000600082015250565b60006131a160148361275d565b91506131ac8261316b565b602082019050919050565b600060208201905081810360008301526131d081613194565b9050919050565b7f455243373231456e756d657261626c653a20676c6f62616c20696e646578206f60008201527f7574206f6620626f756e64730000000000000000000000000000000000000000602082015250565b6000613233602c8361275d565b915061323e826131d7565b604082019050919050565b6000602082019050818103600083015261326281613226565b9050919050565b7f4e487b7100000000000000000000000000000000000000000000000000000000600052603260045260246000fd5b7f50726573616c65206973206e6f742072756e6e696e6700000000000000000000600082015250565b60006132ce60168361275d565b91506132d982613298565b602082019050919050565b600060208201905081810360008301526132fd816132c1565b9050919050565b6000815190506133138161292f565b92915050565b60006020828403121561332f5761332e61268d565b5b600061333d84828501613304565b91505092915050565b7f596f7520617265206e6f742077686974656c6973746564000000000000000000600082015250565b600061337c60178361275d565b915061338782613346565b602082019050919050565b600060208201905081810360008301526133ab8161336f565b9050919050565b7f4578636565646564206d6178696d756d206c696f6e7320746f20737570706c79600082015250565b60006133e860208361275d565b91506133f3826133b2565b602082019050919050565b60006020820190508181036000830152613417816133db565b9050919050565b7f4552433732313a20696e76616c696420746f6b656e2049440000000000000000600082015250565b600061345460188361275d565b915061345f8261341e565b602082019050919050565b6000602082019050818103600083015261348381613447565b9050919050565b7f4552433732313a2061646472657373207a65726f206973206e6f74206120766160008201527f6c6964206f776e65720000000000000000000000000000000000000000000000602082015250565b60006134e660298361275d565b91506134f18261348a565b604082019050919050565b60006020820190508181036000830152613515816134d9565b9050919050565b600081905092915050565b600061353282612752565b61353c818561351c565b935061354c81856020860161276e565b80840191505092915050565b60006135648285613527565b91506135708284613527565b91508190509392505050565b7f4f776e61626c653a206e6577206f776e657220697320746865207a65726f206160008201527f6464726573730000000000000000000000000000000000000000000000000000602082015250565b60006135d860268361275d565b91506135e38261357c565b604082019050919050565b60006020820190508181036000830152613607816135cb565b9050919050565b7f4f776e61626c653a2063616c6c6572206973206e6f7420746865206f776e6572600082015250565b600061364460208361275d565b915061364f8261360e565b602082019050919050565b6000602082019050818103600083015261367381613637565b9050919050565b7f4552433732313a207472616e736665722066726f6d20696e636f72726563742060008201527f6f776e6572000000000000000000000000000000000000000000000000000000602082015250565b60006136d660258361275d565b91506136e18261367a565b604082019050919050565b60006020820190508181036000830152613705816136c9565b9050919050565b7f4552433732313a207472616e7366657220746f20746865207a65726f2061646460008201527f7265737300000000000000000000000000000000000000000000000000000000602082015250565b600061376860248361275d565b91506137738261370c565b604082019050919050565b600060208201905081810360008301526137978161375b565b9050919050565b60006137a982612804565b91506137b483612804565b92508282039050818111156137cc576137cb612c6a565b5b92915050565b7f4552433732313a20617070726f766520746f2063616c6c657200000000000000600082015250565b600061380860198361275d565b9150613813826137d2565b602082019050919050565b60006020820190508181036000830152613837816137fb565b9050919050565b7f4552433732313a207472616e7366657220746f206e6f6e20455243373231526560008201527f63656976657220696d706c656d656e7465720000000000000000000000000000602082015250565b600061389a60328361275d565b91506138a58261383e565b604082019050919050565b600060208201905081810360008301526138c98161388d565b9050919050565b60006138db82612804565b91507fffffffffffffffffffffffffffffffffffffffffffffffffffffffffffffffff820361390d5761390c612c6a565b5b600182019050919050565b7f4e487b7100000000000000000000000000000000000000000000000000000000600052601260045260246000fd5b600061395282612804565b915061395d83612804565b92508261396d5761396c613918565b5b828204905092915050565b600061398382612804565b915061398e83612804565b92508261399e5761399d613918565b5b828206905092915050565b600081519050919050565b600082825260208201905092915050565b60006139d0826139a9565b6139da81856139b4565b93506139ea81856020860161276e565b6139f381612798565b840191505092915050565b6000608082019050613a136000830187612899565b613a206020830186612899565b613a2d6040830185612988565b8181036060830152613a3f81846139c5565b905095945050505050565b600081519050613a59816126c3565b92915050565b600060208284031215613a7557613a7461268d565b5b6000613a8384828501613a4a565b91505092915050565b7f4552433732313a206d696e7420746f20746865207a65726f2061646472657373600082015250565b6000613ac260208361275d565b9150613acd82613a8c565b602082019050919050565b60006020820190508181036000830152613af181613ab5565b9050919050565b7f4552433732313a20746f6b656e20616c7265616479206d696e74656400000000600082015250565b6000613b2e601c8361275d565b9150613b3982613af8565b602082019050919050565b60006020820190508181036000830152613b5d81613b21565b9050919050565b7f4e487b7100000000000000000000000000000000000000000000000000000000600052603160045260246000fdfea2646970667358221220305100bb912b8e2519a55e619e525d68d72f16e7352584da5230eb5ffe5e144364736f6c63430008110033",
  "linkReferences": {},
  "deployedLinkReferences": {}
}